{
  "contractName": "Wallet",
  "abi": [
    {
      "inputs": [
        {
          "internalType": "address[]",
          "name": "_approvers",
          "type": "address[]"
        },
        {
          "internalType": "uint256",
          "name": "_quorum",
          "type": "uint256"
        }
      ],
      "stateMutability": "nonpayable",
      "type": "constructor"
    },
    {
      "inputs": [
        {
          "internalType": "address",
          "name": "",
          "type": "address"
        },
        {
          "internalType": "uint256",
          "name": "",
          "type": "uint256"
        }
      ],
      "name": "approvals",
      "outputs": [
        {
          "internalType": "bool",
          "name": "",
          "type": "bool"
        }
      ],
      "stateMutability": "view",
      "type": "function",
      "constant": true
    },
    {
      "inputs": [
        {
          "internalType": "uint256",
          "name": "",
          "type": "uint256"
        }
      ],
      "name": "approvers",
      "outputs": [
        {
          "internalType": "address",
          "name": "",
          "type": "address"
        }
      ],
      "stateMutability": "view",
      "type": "function",
      "constant": true
    },
    {
      "inputs": [],
      "name": "quorum",
      "outputs": [
        {
          "internalType": "uint256",
          "name": "",
          "type": "uint256"
        }
      ],
      "stateMutability": "view",
      "type": "function",
      "constant": true
    },
    {
      "inputs": [
        {
          "internalType": "uint256",
          "name": "",
          "type": "uint256"
        }
      ],
      "name": "transfers",
      "outputs": [
        {
          "internalType": "uint256",
          "name": "id",
          "type": "uint256"
        },
        {
          "internalType": "uint256",
          "name": "amount",
          "type": "uint256"
        },
        {
          "internalType": "address payable",
          "name": "to",
          "type": "address"
        },
        {
          "internalType": "uint256",
          "name": "approvals",
          "type": "uint256"
        },
        {
          "internalType": "bool",
          "name": "sent",
          "type": "bool"
        }
      ],
      "stateMutability": "view",
      "type": "function",
      "constant": true
    },
    {
      "stateMutability": "payable",
      "type": "receive",
      "payable": true
    },
    {
      "inputs": [],
      "name": "getApprovers",
      "outputs": [
        {
          "internalType": "address[]",
          "name": "",
          "type": "address[]"
        }
      ],
      "stateMutability": "view",
      "type": "function",
      "constant": true
    },
    {
      "inputs": [],
      "name": "getTransfers",
      "outputs": [
        {
          "components": [
            {
              "internalType": "uint256",
              "name": "id",
              "type": "uint256"
            },
            {
              "internalType": "uint256",
              "name": "amount",
              "type": "uint256"
            },
            {
              "internalType": "address payable",
              "name": "to",
              "type": "address"
            },
            {
              "internalType": "uint256",
              "name": "approvals",
              "type": "uint256"
            },
            {
              "internalType": "bool",
              "name": "sent",
              "type": "bool"
            }
          ],
          "internalType": "struct Wallet.Transfer[]",
          "name": "",
          "type": "tuple[]"
        }
      ],
      "stateMutability": "view",
      "type": "function",
      "constant": true
    },
    {
      "inputs": [
        {
          "internalType": "address",
          "name": "_address",
          "type": "address"
        },
        {
          "internalType": "uint256",
          "name": "transferId",
          "type": "uint256"
        }
      ],
      "name": "fetchTransferApproved",
      "outputs": [
        {
          "internalType": "bool",
          "name": "",
          "type": "bool"
        }
      ],
      "stateMutability": "view",
      "type": "function",
      "constant": true
    },
    {
      "inputs": [
        {
          "internalType": "uint256",
          "name": "amount",
          "type": "uint256"
        },
        {
          "internalType": "address payable",
          "name": "to",
          "type": "address"
        }
      ],
      "name": "createTransfer",
      "outputs": [],
      "stateMutability": "nonpayable",
      "type": "function"
    },
    {
      "inputs": [
        {
          "internalType": "uint256",
          "name": "id",
          "type": "uint256"
        }
      ],
      "name": "approveTransfer",
      "outputs": [],
      "stateMutability": "nonpayable",
      "type": "function"
    }
  ],
  "bytecode": "0x60806040523480156200001157600080fd5b5060405162001603380380620016038339818101604052810190620000379190620001dd565b81600090805190602001906200004f9291906200005f565b508060018190555050506200033b565b828054828255906000526020600020908101928215620000db579160200282015b82811115620000da5782518260006101000a81548173ffffffffffffffffffffffffffffffffffffffff021916908373ffffffffffffffffffffffffffffffffffffffff1602179055509160200191906001019062000080565b5b509050620000ea9190620000ee565b5090565b5b8082111562000109576000816000905550600101620000ef565b5090565b6000620001246200011e846200026b565b62000237565b905080838252602082019050828560208602820111156200014457600080fd5b60005b858110156200017857816200015d888262000182565b84526020840193506020830192505060018101905062000147565b5050509392505050565b600081519050620001938162000307565b92915050565b600082601f830112620001ab57600080fd5b8151620001bd8482602086016200010d565b91505092915050565b600081519050620001d78162000321565b92915050565b60008060408385031215620001f157600080fd5b600083015167ffffffffffffffff8111156200020c57600080fd5b6200021a8582860162000199565b92505060206200022d85828601620001c6565b9150509250929050565b6000604051905081810181811067ffffffffffffffff82111715620002615762000260620002d8565b5b8060405250919050565b600067ffffffffffffffff821115620002895762000288620002d8565b5b602082029050602081019050919050565b6000620002a782620002ae565b9050919050565b600073ffffffffffffffffffffffffffffffffffffffff82169050919050565b6000819050919050565b7f4e487b7100000000000000000000000000000000000000000000000000000000600052604160045260246000fd5b62000312816200029a565b81146200031e57600080fd5b50565b6200032c81620002ce565b81146200033857600080fd5b50565b6112b8806200034b6000396000f3fe60806040526004361061008a5760003560e01c80636cb3e8ef116100595780636cb3e8ef146101525780639377d7111461017d578063cacca4a0146101be578063d3650fb8146101e7578063ffabc6731461022457610091565b80631703a018146100965780632f65142c146100c157806333b5eb5a146100ec5780634c12fa471461012957610091565b3661009157005b600080fd5b3480156100a257600080fd5b506100ab610261565b6040516100b8919061107a565b60405180910390f35b3480156100cd57600080fd5b506100d6610267565b6040516100e39190610fdd565b60405180910390f35b3480156100f857600080fd5b50610113600480360381019061010e9190610c4d565b610355565b6040516101209190610fff565b60405180910390f35b34801561013557600080fd5b50610150600480360381019061014b9190610cb2565b6103bd565b005b34801561015e57600080fd5b506101676105c3565b6040516101749190610fbb565b60405180910390f35b34801561018957600080fd5b506101a4600480360381019061019f9190610c89565b610651565b6040516101b5959493929190611095565b60405180910390f35b3480156101ca57600080fd5b506101e560048036038101906101e09190610c89565b6106c4565b005b3480156101f357600080fd5b5061020e60048036038101906102099190610c89565b610ba0565b60405161021b9190610fa0565b60405180910390f35b34801561023057600080fd5b5061024b60048036038101906102469190610c4d565b610bdf565b6040516102589190610fff565b60405180910390f35b60015481565b60606002805480602002602001604051908101604052809291908181526020016000905b8282101561034c57838290600052602060002090600502016040518060a001604052908160008201548152602001600182015481526020016002820160009054906101000a900473ffffffffffffffffffffffffffffffffffffffff1673ffffffffffffffffffffffffffffffffffffffff1673ffffffffffffffffffffffffffffffffffffffff168152602001600382015481526020016004820160009054906101000a900460ff1615151515815250508152602001906001019061028b565b50505050905090565b6000600360008473ffffffffffffffffffffffffffffffffffffffff1673ffffffffffffffffffffffffffffffffffffffff168152602001908152602001600020600083815260200190815260200160002060009054906101000a900460ff16905092915050565b6000805b60008054905081101561047e573373ffffffffffffffffffffffffffffffffffffffff166000828154811061041f577f4e487b7100000000000000000000000000000000000000000000000000000000600052603260045260246000fd5b9060005260206000200160009054906101000a900473ffffffffffffffffffffffffffffffffffffffff1673ffffffffffffffffffffffffffffffffffffffff16141561046b57600191505b8080610476906111c5565b9150506103c1565b5060011515811515146104c6576040517f08c379a00000000000000000000000000000000000000000000000000000000081526004016104bd9061101a565b60405180910390fd5b60026040518060a0016040528060028054905081526020018581526020018473ffffffffffffffffffffffffffffffffffffffff16815260200160008152602001600015158152509080600181540180825580915050600190039060005260206000209060050201600090919091909150600082015181600001556020820151816001015560408201518160020160006101000a81548173ffffffffffffffffffffffffffffffffffffffff021916908373ffffffffffffffffffffffffffffffffffffffff1602179055506060820151816003015560808201518160040160006101000a81548160ff0219169083151502179055505050505050565b6060600080548060200260200160405190810160405280929190818152602001828054801561064757602002820191906000526020600020905b8160009054906101000a900473ffffffffffffffffffffffffffffffffffffffff1673ffffffffffffffffffffffffffffffffffffffff16815260200190600101908083116105fd575b5050505050905090565b6002818154811061066157600080fd5b90600052602060002090600502016000915090508060000154908060010154908060020160009054906101000a900473ffffffffffffffffffffffffffffffffffffffff16908060030154908060040160009054906101000a900460ff16905085565b6000805b600080549050811015610785573373ffffffffffffffffffffffffffffffffffffffff1660008281548110610726577f4e487b7100000000000000000000000000000000000000000000000000000000600052603260045260246000fd5b9060005260206000200160009054906101000a900473ffffffffffffffffffffffffffffffffffffffff1673ffffffffffffffffffffffffffffffffffffffff16141561077257600191505b808061077d906111c5565b9150506106c8565b5060011515811515146107cd576040517f08c379a00000000000000000000000000000000000000000000000000000000081526004016107c49061101a565b60405180910390fd5b600015156002838154811061080b577f4e487b7100000000000000000000000000000000000000000000000000000000600052603260045260246000fd5b906000526020600020906005020160040160009054906101000a900460ff1615151461086c576040517f08c379a00000000000000000000000000000000000000000000000000000000081526004016108639061103a565b60405180910390fd5b60001515600360003373ffffffffffffffffffffffffffffffffffffffff1673ffffffffffffffffffffffffffffffffffffffff168152602001908152602001600020600084815260200190815260200160002060009054906101000a900460ff16151514610910576040517f08c379a00000000000000000000000000000000000000000000000000000000081526004016109079061105a565b60405180910390fd5b6001600360003373ffffffffffffffffffffffffffffffffffffffff1673ffffffffffffffffffffffffffffffffffffffff168152602001908152602001600020600084815260200190815260200160002060006101000a81548160ff021916908315150217905550600282815481106109b3577f4e487b7100000000000000000000000000000000000000000000000000000000600052603260045260246000fd5b906000526020600020906005020160030160008154809291906109d5906111c5565b919050555060015460028381548110610a17577f4e487b7100000000000000000000000000000000000000000000000000000000600052603260045260246000fd5b90600052602060002090600502016003015410610b9c57600160028381548110610a6a577f4e487b7100000000000000000000000000000000000000000000000000000000600052603260045260246000fd5b906000526020600020906005020160040160006101000a81548160ff021916908315150217905550600060028381548110610ace577f4e487b7100000000000000000000000000000000000000000000000000000000600052603260045260246000fd5b906000526020600020906005020160020160009054906101000a900473ffffffffffffffffffffffffffffffffffffffff169050600060028481548110610b3e577f4e487b7100000000000000000000000000000000000000000000000000000000600052603260045260246000fd5b90600052602060002090600502016001015490508173ffffffffffffffffffffffffffffffffffffffff166108fc829081150290604051600060405180830381858888f19350505050158015610b98573d6000803e3d6000fd5b5050505b5050565b60008181548110610bb057600080fd5b906000526020600020016000915054906101000a900473ffffffffffffffffffffffffffffffffffffffff1681565b60036020528160005260406000206020528060005260406000206000915091509054906101000a900460ff1681565b600081359050610c1d8161123d565b92915050565b600081359050610c3281611254565b92915050565b600081359050610c478161126b565b92915050565b60008060408385031215610c6057600080fd5b6000610c6e85828601610c0e565b9250506020610c7f85828601610c38565b9150509250929050565b600060208284031215610c9b57600080fd5b6000610ca984828501610c38565b91505092915050565b60008060408385031215610cc557600080fd5b6000610cd385828601610c38565b9250506020610ce485828601610c23565b9150509250929050565b6000610cfa8383610d3c565b60208301905092915050565b6000610d128383610f1a565b60a08301905092915050565b610d278161117d565b82525050565b610d368161117d565b82525050565b610d458161116b565b82525050565b610d548161116b565b82525050565b6000610d6582611108565b610d6f8185611138565b9350610d7a836110e8565b8060005b83811015610dab578151610d928882610cee565b9750610d9d8361111e565b925050600181019050610d7e565b5085935050505092915050565b6000610dc382611113565b610dcd8185611149565b9350610dd8836110f8565b8060005b83811015610e09578151610df08882610d06565b9750610dfb8361112b565b925050600181019050610ddc565b5085935050505092915050565b610e1f8161118f565b82525050565b610e2e8161118f565b82525050565b6000610e41602e8361115a565b91507f4f6e6c7920617070726f766564206164647265737365732063616e206170707260008301527f6f76652061207472616e736665720000000000000000000000000000000000006020830152604082019050919050565b6000610ea7601e8361115a565b91507f5472616e736665722068617320616c7265616479206265656e2073656e7400006000830152602082019050919050565b6000610ee7601d8361115a565b91507f63616e6e6f7420617070726f7665207472616e736665722074776963650000006000830152602082019050919050565b60a082016000820151610f306000850182610f82565b506020820151610f436020850182610f82565b506040820151610f566040850182610d1e565b506060820151610f696060850182610f82565b506080820151610f7c6080850182610e16565b50505050565b610f8b816111bb565b82525050565b610f9a816111bb565b82525050565b6000602082019050610fb56000830184610d4b565b92915050565b60006020820190508181036000830152610fd58184610d5a565b905092915050565b60006020820190508181036000830152610ff78184610db8565b905092915050565b60006020820190506110146000830184610e25565b92915050565b6000602082019050818103600083015261103381610e34565b9050919050565b6000602082019050818103600083015261105381610e9a565b9050919050565b6000602082019050818103600083015261107381610eda565b9050919050565b600060208201905061108f6000830184610f91565b92915050565b600060a0820190506110aa6000830188610f91565b6110b76020830187610f91565b6110c46040830186610d2d565b6110d16060830185610f91565b6110de6080830184610e25565b9695505050505050565b6000819050602082019050919050565b6000819050602082019050919050565b600081519050919050565b600081519050919050565b6000602082019050919050565b6000602082019050919050565b600082825260208201905092915050565b600082825260208201905092915050565b600082825260208201905092915050565b60006111768261119b565b9050919050565b60006111888261119b565b9050919050565b60008115159050919050565b600073ffffffffffffffffffffffffffffffffffffffff82169050919050565b6000819050919050565b60006111d0826111bb565b91507fffffffffffffffffffffffffffffffffffffffffffffffffffffffffffffffff8214156112035761120261120e565b5b600182019050919050565b7f4e487b7100000000000000000000000000000000000000000000000000000000600052601160045260246000fd5b6112468161116b565b811461125157600080fd5b50565b61125d8161117d565b811461126857600080fd5b50565b611274816111bb565b811461127f57600080fd5b5056fea264697066735822122033d623f9cdc7e7fabf88121a6e173afaa67ed5c07a3808f11c6e07f2d0cde14e64736f6c63430008000033",
  "immutableReferences": {},
  "source": "pragma solidity 0.8.0;\n\ncontract Wallet {\n  address[] public approvers;\n  uint public quorum;\n  struct Transfer {\n    uint id;\n    uint amount;\n    address payable to;\n    uint approvals;\n    bool sent;\n  }\n  Transfer[] public transfers;\n\n  /*\n  * List of addresses who have approved what \n  */\n  mapping(address => mapping(uint => bool)) public approvals;\n\n  constructor (address[] memory _approvers, uint _quorum) {\n    approvers = _approvers;\n    quorum = _quorum;\n  }\n\n  function getApprovers() external view returns(address[] memory) {\n    return approvers;\n  }\n\n  function getTransfers() external view returns(Transfer[] memory) {\n    return transfers;\n  }\n\n  function fetchTransferApproved(address _address, uint transferId) external view returns(bool) {\n    return approvals[_address][transferId];\n  }\n\n  function createTransfer(uint amount, address payable to) external onlyApprover() {\n    transfers.push(\n      Transfer(\n        transfers.length,\n        amount,\n        to,\n        0,\n        false\n      )\n    );\n  }\n\n  function approveTransfer(uint id) external onlyApprover() {\n    require(transfers[id].sent == false, 'Transfer has already been sent');\n    require(approvals[msg.sender][id] == false, 'cannot approve transfer twice');\n\n    approvals[msg.sender][id] = true;\n    transfers[id].approvals++;\n\n    if (transfers[id].approvals >= quorum) {\n      transfers[id].sent = true;\n      address payable to = transfers[id].to;\n      uint amount = transfers[id].amount;\n      to.transfer(amount);\n    }\n  }\n\n  receive() external payable {}\n\n  modifier onlyApprover() {\n    bool allowed = false;\n    for (uint i = 0; i < approvers.length; i++) {\n      if (approvers[i] == msg.sender) {\n        allowed = true;\n      }\n    }\n    require(allowed == true, 'Only approved addresses can approve a transfer');\n    _;\n  }\n}",
  "sourcePath": "/home/jsan/projects/eattheblocks/multisig-wallet/contracts/Wallet.sol",
  "compiler": {
    "name": "solc",
    "version": "0.8.0+commit.c7dfd78e.Emscripten.clang"
  },
  "schemaVersion": "3.4.5",
  "updatedAt": "2022-03-05T13:05:58.211Z",
  "networkType": "ethereum",
  "devdoc": {
    "kind": "dev",
    "methods": {},
    "version": 1
  },
  "userdoc": {
    "kind": "user",
    "methods": {},
    "version": 1
  }
}