{
  "contractName": "Wallet",
  "abi": [
    {
      "inputs": [
        {
          "internalType": "address[]",
          "name": "_approvers",
          "type": "address[]"
        },
        {
          "internalType": "uint256",
          "name": "_quorum",
          "type": "uint256"
        }
      ],
      "stateMutability": "nonpayable",
      "type": "constructor"
    },
    {
      "inputs": [
        {
          "internalType": "address",
          "name": "",
          "type": "address"
        },
        {
          "internalType": "uint256",
          "name": "",
          "type": "uint256"
        }
      ],
      "name": "approvals",
      "outputs": [
        {
          "internalType": "bool",
          "name": "",
          "type": "bool"
        }
      ],
      "stateMutability": "view",
      "type": "function",
      "constant": true
    },
    {
      "inputs": [
        {
          "internalType": "uint256",
          "name": "",
          "type": "uint256"
        }
      ],
      "name": "approvers",
      "outputs": [
        {
          "internalType": "address",
          "name": "",
          "type": "address"
        }
      ],
      "stateMutability": "view",
      "type": "function",
      "constant": true
    },
    {
      "inputs": [],
      "name": "quorum",
      "outputs": [
        {
          "internalType": "uint256",
          "name": "",
          "type": "uint256"
        }
      ],
      "stateMutability": "view",
      "type": "function",
      "constant": true
    },
    {
      "inputs": [
        {
          "internalType": "uint256",
          "name": "",
          "type": "uint256"
        }
      ],
      "name": "transfers",
      "outputs": [
        {
          "internalType": "uint256",
          "name": "id",
          "type": "uint256"
        },
        {
          "internalType": "uint256",
          "name": "amount",
          "type": "uint256"
        },
        {
          "internalType": "address payable",
          "name": "to",
          "type": "address"
        },
        {
          "internalType": "uint256",
          "name": "approvals",
          "type": "uint256"
        },
        {
          "internalType": "bool",
          "name": "sent",
          "type": "bool"
        }
      ],
      "stateMutability": "view",
      "type": "function",
      "constant": true
    },
    {
      "stateMutability": "payable",
      "type": "receive",
      "payable": true
    },
    {
      "inputs": [],
      "name": "getApprovers",
      "outputs": [
        {
          "internalType": "address[]",
          "name": "",
          "type": "address[]"
        }
      ],
      "stateMutability": "view",
      "type": "function",
      "constant": true
    },
    {
      "inputs": [],
      "name": "getTransfers",
      "outputs": [
        {
          "components": [
            {
              "internalType": "uint256",
              "name": "id",
              "type": "uint256"
            },
            {
              "internalType": "uint256",
              "name": "amount",
              "type": "uint256"
            },
            {
              "internalType": "address payable",
              "name": "to",
              "type": "address"
            },
            {
              "internalType": "uint256",
              "name": "approvals",
              "type": "uint256"
            },
            {
              "internalType": "bool",
              "name": "sent",
              "type": "bool"
            }
          ],
          "internalType": "struct Wallet.Transfer[]",
          "name": "",
          "type": "tuple[]"
        }
      ],
      "stateMutability": "view",
      "type": "function",
      "constant": true
    },
    {
      "inputs": [
        {
          "internalType": "address",
          "name": "_address",
          "type": "address"
        },
        {
          "internalType": "uint256",
          "name": "transferId",
          "type": "uint256"
        }
      ],
      "name": "fetchTransferApproved",
      "outputs": [
        {
          "internalType": "bool",
          "name": "",
          "type": "bool"
        }
      ],
      "stateMutability": "view",
      "type": "function",
      "constant": true
    },
    {
      "inputs": [
        {
          "internalType": "uint256",
          "name": "amount",
          "type": "uint256"
        },
        {
          "internalType": "address payable",
          "name": "to",
          "type": "address"
        }
      ],
      "name": "createTransfer",
      "outputs": [],
      "stateMutability": "nonpayable",
      "type": "function"
    },
    {
      "inputs": [
        {
          "internalType": "uint256",
          "name": "id",
          "type": "uint256"
        }
      ],
      "name": "approveTransfer",
      "outputs": [],
      "stateMutability": "nonpayable",
      "type": "function"
    }
  ],
  "bytecode": "0x60806040523480156200001157600080fd5b50604051620013f0380380620013f08339818101604052620000379190810190620001ef565b81600090805190602001906200004f9291906200005f565b5080600181905550505062000312565b828054828255906000526020600020908101928215620000db579160200282015b82811115620000da5782518260006101000a81548173ffffffffffffffffffffffffffffffffffffffff021916908373ffffffffffffffffffffffffffffffffffffffff1602179055509160200191906001019062000080565b5b509050620000ea9190620000ee565b5090565b6200013191905b808211156200012d57600081816101000a81549073ffffffffffffffffffffffffffffffffffffffff021916905550600101620000f5565b5090565b90565b6000815190506200014581620002de565b92915050565b600082601f8301126200015d57600080fd5b8151620001746200016e8262000277565b62000249565b915081818352602084019350602081019050838560208402820111156200019a57600080fd5b60005b83811015620001ce5781620001b3888262000134565b8452602084019350602083019250506001810190506200019d565b5050505092915050565b600081519050620001e981620002f8565b92915050565b600080604083850312156200020357600080fd5b600083015167ffffffffffffffff8111156200021e57600080fd5b6200022c858286016200014b565b92505060206200023f85828601620001d8565b9150509250929050565b6000604051905081810181811067ffffffffffffffff821117156200026d57600080fd5b8060405250919050565b600067ffffffffffffffff8211156200028f57600080fd5b602082029050602081019050919050565b6000620002ad82620002b4565b9050919050565b600073ffffffffffffffffffffffffffffffffffffffff82169050919050565b6000819050919050565b620002e981620002a0565b8114620002f557600080fd5b50565b6200030381620002d4565b81146200030f57600080fd5b50565b6110ce80620003226000396000f3fe60806040526004361061008a5760003560e01c80636cb3e8ef116100595780636cb3e8ef146101525780639377d7111461017d578063cacca4a0146101be578063d3650fb8146101e7578063ffabc6731461022457610091565b80631703a018146100965780632f65142c146100c157806333b5eb5a146100ec5780634c12fa471461012957610091565b3661009157005b600080fd5b3480156100a257600080fd5b506100ab610261565b6040516100b89190610f08565b60405180910390f35b3480156100cd57600080fd5b506100d6610267565b6040516100e39190610e6b565b60405180910390f35b3480156100f857600080fd5b50610113600480360361010e9190810190610adb565b610355565b6040516101209190610e8d565b60405180910390f35b34801561013557600080fd5b50610150600480360361014b9190810190610b40565b6103bd565b005b34801561015e57600080fd5b50610167610597565b6040516101749190610e49565b60405180910390f35b34801561018957600080fd5b506101a4600480360361019f9190810190610b17565b610625565b6040516101b5959493929190610f23565b60405180910390f35b3480156101ca57600080fd5b506101e560048036036101e09190810190610b17565b610695565b005b3480156101f357600080fd5b5061020e60048036036102099190810190610b17565b610a31565b60405161021b9190610e2e565b60405180910390f35b34801561023057600080fd5b5061024b60048036036102469190810190610adb565b610a6d565b6040516102589190610e8d565b60405180910390f35b60015481565b60606002805480602002602001604051908101604052809291908181526020016000905b8282101561034c57838290600052602060002090600502016040518060a001604052908160008201548152602001600182015481526020016002820160009054906101000a900473ffffffffffffffffffffffffffffffffffffffff1673ffffffffffffffffffffffffffffffffffffffff1673ffffffffffffffffffffffffffffffffffffffff168152602001600382015481526020016004820160009054906101000a900460ff1615151515815250508152602001906001019061028b565b50505050905090565b6000600360008473ffffffffffffffffffffffffffffffffffffffff1673ffffffffffffffffffffffffffffffffffffffff168152602001908152602001600020600083815260200190815260200160002060009054906101000a900460ff16905092915050565b600080905060008090505b600080549050811015610452573373ffffffffffffffffffffffffffffffffffffffff16600082815481106103f957fe5b9060005260206000200160009054906101000a900473ffffffffffffffffffffffffffffffffffffffff1673ffffffffffffffffffffffffffffffffffffffff16141561044557600191505b80806001019150506103c8565b50600115158115151461049a576040517f08c379a000000000000000000000000000000000000000000000000000000000815260040161049190610ea8565b60405180910390fd5b60026040518060a0016040528060028054905081526020018581526020018473ffffffffffffffffffffffffffffffffffffffff16815260200160008152602001600015158152509080600181540180825580915050600190039060005260206000209060050201600090919091909150600082015181600001556020820151816001015560408201518160020160006101000a81548173ffffffffffffffffffffffffffffffffffffffff021916908373ffffffffffffffffffffffffffffffffffffffff1602179055506060820151816003015560808201518160040160006101000a81548160ff0219169083151502179055505050505050565b6060600080548060200260200160405190810160405280929190818152602001828054801561061b57602002820191906000526020600020905b8160009054906101000a900473ffffffffffffffffffffffffffffffffffffffff1673ffffffffffffffffffffffffffffffffffffffff16815260200190600101908083116105d1575b5050505050905090565b6002818154811061063257fe5b90600052602060002090600502016000915090508060000154908060010154908060020160009054906101000a900473ffffffffffffffffffffffffffffffffffffffff16908060030154908060040160009054906101000a900460ff16905085565b600080905060008090505b60008054905081101561072a573373ffffffffffffffffffffffffffffffffffffffff16600082815481106106d157fe5b9060005260206000200160009054906101000a900473ffffffffffffffffffffffffffffffffffffffff1673ffffffffffffffffffffffffffffffffffffffff16141561071d57600191505b80806001019150506106a0565b506001151581151514610772576040517f08c379a000000000000000000000000000000000000000000000000000000000815260040161076990610ea8565b60405180910390fd5b600015156002838154811061078357fe5b906000526020600020906005020160040160009054906101000a900460ff161515146107e4576040517f08c379a00000000000000000000000000000000000000000000000000000000081526004016107db90610ec8565b60405180910390fd5b60001515600360003373ffffffffffffffffffffffffffffffffffffffff1673ffffffffffffffffffffffffffffffffffffffff168152602001908152602001600020600084815260200190815260200160002060009054906101000a900460ff16151514610888576040517f08c379a000000000000000000000000000000000000000000000000000000000815260040161087f90610ee8565b60405180910390fd5b6001600360003373ffffffffffffffffffffffffffffffffffffffff1673ffffffffffffffffffffffffffffffffffffffff168152602001908152602001600020600084815260200190815260200160002060006101000a81548160ff021916908315150217905550600282815481106108fe57fe5b9060005260206000209060050201600301600081548092919060010191905055506001546002838154811061092f57fe5b90600052602060002090600502016003015410610a2d5760016002838154811061095557fe5b906000526020600020906005020160040160006101000a81548160ff02191690831515021790555060006002838154811061098c57fe5b906000526020600020906005020160020160009054906101000a900473ffffffffffffffffffffffffffffffffffffffff1690506000600284815481106109cf57fe5b90600052602060002090600502016001015490508173ffffffffffffffffffffffffffffffffffffffff166108fc829081150290604051600060405180830381858888f19350505050158015610a29573d6000803e3d6000fd5b5050505b5050565b60008181548110610a3e57fe5b906000526020600020016000915054906101000a900473ffffffffffffffffffffffffffffffffffffffff1681565b60036020528160005260406000206020528060005260406000206000915091509054906101000a900460ff1681565b600081359050610aab81611053565b92915050565b600081359050610ac08161106a565b92915050565b600081359050610ad581611081565b92915050565b60008060408385031215610aee57600080fd5b6000610afc85828601610a9c565b9250506020610b0d85828601610ac6565b9150509250929050565b600060208284031215610b2957600080fd5b6000610b3784828501610ac6565b91505092915050565b60008060408385031215610b5357600080fd5b6000610b6185828601610ac6565b9250506020610b7285828601610ab1565b9150509250929050565b6000610b888383610bca565b60208301905092915050565b6000610ba08383610da8565b60a08301905092915050565b610bb58161100b565b82525050565b610bc48161100b565b82525050565b610bd381610ff9565b82525050565b610be281610ff9565b82525050565b6000610bf382610f96565b610bfd8185610fc6565b9350610c0883610f76565b8060005b83811015610c39578151610c208882610b7c565b9750610c2b83610fac565b925050600181019050610c0c565b5085935050505092915050565b6000610c5182610fa1565b610c5b8185610fd7565b9350610c6683610f86565b8060005b83811015610c97578151610c7e8882610b94565b9750610c8983610fb9565b925050600181019050610c6a565b5085935050505092915050565b610cad8161101d565b82525050565b610cbc8161101d565b82525050565b6000610ccf602e83610fe8565b91507f4f6e6c7920617070726f766564206164647265737365732063616e206170707260008301527f6f76652061207472616e736665720000000000000000000000000000000000006020830152604082019050919050565b6000610d35601e83610fe8565b91507f5472616e736665722068617320616c7265616479206265656e2073656e7400006000830152602082019050919050565b6000610d75601d83610fe8565b91507f63616e6e6f7420617070726f7665207472616e736665722074776963650000006000830152602082019050919050565b60a082016000820151610dbe6000850182610e10565b506020820151610dd16020850182610e10565b506040820151610de46040850182610bac565b506060820151610df76060850182610e10565b506080820151610e0a6080850182610ca4565b50505050565b610e1981611049565b82525050565b610e2881611049565b82525050565b6000602082019050610e436000830184610bd9565b92915050565b60006020820190508181036000830152610e638184610be8565b905092915050565b60006020820190508181036000830152610e858184610c46565b905092915050565b6000602082019050610ea26000830184610cb3565b92915050565b60006020820190508181036000830152610ec181610cc2565b9050919050565b60006020820190508181036000830152610ee181610d28565b9050919050565b60006020820190508181036000830152610f0181610d68565b9050919050565b6000602082019050610f1d6000830184610e1f565b92915050565b600060a082019050610f386000830188610e1f565b610f456020830187610e1f565b610f526040830186610bbb565b610f5f6060830185610e1f565b610f6c6080830184610cb3565b9695505050505050565b6000819050602082019050919050565b6000819050602082019050919050565b600081519050919050565b600081519050919050565b6000602082019050919050565b6000602082019050919050565b600082825260208201905092915050565b600082825260208201905092915050565b600082825260208201905092915050565b600061100482611029565b9050919050565b600061101682611029565b9050919050565b60008115159050919050565b600073ffffffffffffffffffffffffffffffffffffffff82169050919050565b6000819050919050565b61105c81610ff9565b811461106757600080fd5b50565b6110738161100b565b811461107e57600080fd5b50565b61108a81611049565b811461109557600080fd5b5056fea2646970667358221220abb93eae0219fb71dfda3f395e9e0cdbbb76f00c8cd84ce1002d8945b93e558864736f6c63430006000033",
  "source": "pragma solidity 0.6.0;\npragma experimental ABIEncoderV2;\n\ncontract Wallet {\n  address[] public approvers;\n  uint public quorum;\n  struct Transfer {\n    uint id;\n    uint amount;\n    address payable to;\n    uint approvals;\n    bool sent;\n  }\n  Transfer[] public transfers;\n\n  /*\n  * List of addresses who have approved what \n  */\n  mapping(address => mapping(uint => bool)) public approvals;\n\n  constructor (address[] memory _approvers, uint _quorum) public {\n    approvers = _approvers;\n    quorum = _quorum;\n  }\n\n  function getApprovers() external view returns(address[] memory) {\n    return approvers;\n  }\n\n  function getTransfers() external view returns(Transfer[] memory) {\n    return transfers;\n  }\n\n  function fetchTransferApproved(address _address, uint transferId) external view returns(bool) {\n    return approvals[_address][transferId];\n  }\n\n  function createTransfer(uint amount, address payable to) external onlyApprover() {\n    transfers.push(\n      Transfer(\n        transfers.length,\n        amount,\n        to,\n        0,\n        false\n      )\n    );\n  }\n\n  function approveTransfer(uint id) external onlyApprover() {\n    require(transfers[id].sent == false, 'Transfer has already been sent');\n    require(approvals[msg.sender][id] == false, 'cannot approve transfer twice');\n\n    approvals[msg.sender][id] = true;\n    transfers[id].approvals++;\n\n    if (transfers[id].approvals >= quorum) {\n      transfers[id].sent = true;\n      address payable to = transfers[id].to;\n      uint amount = transfers[id].amount;\n      to.transfer(amount);\n    }\n  }\n\n  receive() external payable {}\n\n  modifier onlyApprover() {\n    bool allowed = false;\n    for (uint i = 0; i < approvers.length; i++) {\n      if (approvers[i] == msg.sender) {\n        allowed = true;\n      }\n    }\n    require(allowed == true, 'Only approved addresses can approve a transfer');\n    _;\n  }\n}",
  "sourcePath": "/home/jsan/projects/eattheblocks/multisig-wallet/contracts/Wallet.sol",
  "compiler": {
    "name": "solc",
    "version": "0.6.0+commit.26b70077.Emscripten.clang"
  },
  "schemaVersion": "3.4.5",
  "updatedAt": "2022-03-05T11:48:55.001Z",
  "networkType": "ethereum",
  "devdoc": {
    "methods": {}
  },
  "userdoc": {
    "methods": {}
  }
}